:020000040800F2
:10000000480C0020C500000899180008D714000803
:1000100000000000000000000000000000000000E0
:100020000000000000000000000000009D18000813
:1000300000000000000000009B1800089F18000846
:10004000D700000800000000D7000008D700000813
:10005000D70000081D020008D70000082D02000884
:1000600000000000D7000008D7000008D7000008F3
:10007000D7000008D7000008D700000800000000E3
:10008000D70000080000000000000000D7000008B2
:1000900000000000D7000008D7000008D7000008C3
:1000A00000000000D700000800000000D700000892
:1000B0000348854600F0A0F80048004715200008D6
:1000C000480C00200448804704480047FEE7FEE74C
:1000D000FEE7FEE7FEE7FEE715190008B10000089D
:1000E00030B50B46014600202022012409E00D46D0
:1000F000D5409D4205D31D469540491B2546954058
:1001000040191546521E002DF1DC30BDF0B51FB46C
:100110000646002082B005464024019100901BE075
:10012000019922460F46304600F020F8049A059BBC
:10013000801A994110D310461946224600F04BF818
:10014000361A8F410197224601200021009F00F0BE
:1001500042F838184D4100902046641E0028DFDC2C
:10016000019B00982946324607B0F0BD10B5202A01
:1001700004DB0846203AD040002110BD0B46D34096
:10018000D0402024A21A91400843194610BD0346CE
:100190000B439B0703D009E008C9121F08C0042ABB
:1001A000FAD203E00B780370401C491C521EF9D2AE
:1001B0007047D2B201E00270401C491EFBD270476A
:1001C0000022F6E710B513460A4604461946FFF723
:1001D000F0FF204610BD10B5202A04DB0146203A6E
:1001E0009140002010BD914020239C1A0346E3401B
:1001F0001943904010BD0000064C0125064E05E055
:10020000E36807CC2B430C3C98471034B442F7D337
:10021000FFF752FFDC390008FC39000810B5012057
:1002200000F07EF9022000F07BF910BD10B520200F
:1002300000F076F9402000F073F9802000F070F9AA
:1002400010BD000070B5044600F042FA0546601C7F
:1002500002D004480078241800F03AFA401BA0426B
:10026000FAD370BD58000020FEB50146A848092702
:100270000126FF060025007820290CD0A54C012975
:100280007ED040297DD002297CD080292DD1A04963
:10029000022878D009E19E4C083CA178002924D19D
:1002A000012822D12078002812D001281ED002284F
:1002B00032D0032819D12021384600F0F5F9012861
:1002C00037D02021384600F0EFF9002838D049E037
:1002D0002021384600F0E8F9002806D18E48267023
:1002E000006845628C4800F0F3FFFEBD20213846CF
:1002F00000F0DAF901280BD1874E3068406A3328C4
:1003000006D902202070304601F002F83068C7E0BC
:100310002078401E2070FEBD2021384600F0C4F930
:10032000002801D02570FEBD03200122207002218B
:1003300031E0794800684562774800F0C9FF11E074
:1003400075480068416A754AE3687348D15400F003
:10035000DFFFE0680022401CE06060711021384639
:1003600000F0AFF96C480068406A552802D2E06896
:10037000FF28D8DB072000F025FCE560657003E06E
:100380000DE08FE0A3E0B5E02570A670624800F0B4
:10039000BFFF01221021384600F093F9FEBD01286D
:1003A00005D10121384600F07FF9012807D05848CF
:1003B000007802280DD0564C002865D06DE05449D5
:1003C0000220087001F0A4FC1021384600F071F9F9
:1003D00063E00121384600F067F9002803D14C485A
:1003E0000078022806D00121384600F05DF9012886
:1003F00009D052E0484848300068456246484830D5
:1004000000F066FF49E0424E3078022845D142486C
:10041000483000F07DFF404848300068406AFF21C6
:100420009131884211D83078022836D160780A2874
:1004300033D2217832461832525C3649C91C4254B4
:100440006078401C6070022025E032494839084637
:10045000223802880A85408848852E486278E11C47
:100460001638FFF794FE2B487D2122380090C900F2
:10047000202229480192029102230022A0214C3817
:1004800000F07AFA052006E00121384600F00CF968
:10049000012802D1267001F03BFC1F48483000685B
:1004A0004562FEBD1A49022803D00028F9D10E701A
:1004B00018E01021384600F0FCF82078192801D205
:1004C000401C21E0257020E001F022FCFEBD10213F
:1004D000384600F0EEF80E480178022904D00029D1
:1004E000F4D106700120EFE760780028EED0401EBE
:1004F00060700AE01021384600F0DBF82078002810
:1005000001D0401E00E0192020700220DCE700002E
:100510002000002030080020B4040020C80500207E
:1005200010B504494A69024202D04861FFF79CFEB7
:1005300010BD000000040140FCB500230124A1E02F
:1005400027462A469F403A4073D04D68012D05D07A
:10055000022D03D0112D01D0122D16D1856803264E
:10056000AC465D00AE46AE406546B543AC46CE688F
:100570007546AE4065462E43866046680D79BE439B
:10058000ED06ED0F9D4035434560C6685F000325CD
:10059000BD40AE46AE4335468E68BE402E43C66073
:1005A0004E68022E01D0122E14D1DE08B600361885
:1005B0000196366A5D07B446EE0E0F25B5400096EB
:1005C0006646AE43B4460D69009EB54066462E436E
:1005D000019D2E6206687546AE430D79AD07AD0FDD
:1005E000BD40354305604D68ED004AD5284DAE69E4
:1005F0002643AE61AD699E08ED07ED0F0095254DD0
:10060000B6007519AC46AD689E07360F0F27B74088
:10061000BD430927FF06B84201D1002710E01E4F55
:10062000B84201D101270BE01C4FB84202D102278A
:1006300006E026E01A4FB84201D1032700E0052763
:10064000B7402F436546AF60164E35684F689543F7
:10065000FF0300D51543356075684F689543BF03A8
:1006600000D515437560B5684F689543FF0200D506
:100670001543B560F5684F689543BF0200D5154333
:10068000F5605B1C0A681546DA4000D058E7FCBDEF
:10069000001002400000014000040048000800482B
:1006A000000C0048000401400069084000D001200F
:1006B0007047426913460B401B0491430B4383610F
:1006C0007047002A01D08161704781627047000045
:1006D00001488068704700005800002070B502464D
:1006E00040325378202B1CD11378012B19D00123D1
:1006F000137024245470046825689D4325600468A1
:1007000025681E03B5432560046825680D432560F0
:1007100000680168194301602020507000201070AB
:1007200070BD022070BD70B5024640325378202B58
:100730001BD11378012B18D001241470242353707B
:1007400003681D68A5431D6005682B680F263602E7
:10075000B34309021943296000680168214301601D
:10076000202050700020107070BD022070BD00006D
:1007700070B5040006D0254640356878002600286C
:1007800002D005E0012070BD2E70204600F09AF9DD
:1007900024206870206801684908490001600F2121
:1007A0006068090688432168086121688A68012019
:1007B000C00382438A60E1680129A16808D0212230
:1007C0009202114322689160E168022902D005E09B
:1007D0000143F7E701212268C902516021684A6894
:1007E0000F4B1A434A602168CA688243CA60616934
:1007F00020690843A169090208432168C860216A89
:10080000E0690843216808602068016801221143FB
:1008100001606664202068702663AE70002070BDA1
:1008200000800002FFB5054604464035687883B075
:10083000202875D10C98002814D00D98002811D0CC
:10084000287801286CD001202870FFF741FF074667
:10085000012200901923D103204600F0FBFE00285E
:1008600074D103E00120400260646FE022206870D0
:100870004020A870002666640C9860620D98608520
:1008800066630E980090019704A90EC9204600F0F7
:100890006DFE002801D02E7058E0618D3448FF298C
:1008A00005D9FF22228501231B06009006E0618DF9
:1008B00021850090208D0123C2B25B062046049959
:1008C00000F0B4FE00970022042120460E9B00F0A9
:1008D000C1FE00283AD12068406A616A0870606AE7
:1008E000401C6062208D401E81B22185608D401EBB
:1008F0006085608D00281FD000291DD1009700223F
:10090000802120460E9B00F0A5FE00281ED1608DA0
:10091000FF2806D9FF22228501231B06009607E047
:1009200024E0608D20850096208D0123C2B25B06F5
:100930002046049900F07AFE608D0028C2D13A4624
:1009400020460E9900F0ADFE002802D0012007B02D
:10095000F0BD20682021C16120684268054B1A4023
:1009600042606970AE702E700020F0E70220EEE762
:100970000024008000E800FEFFB50546044640352F
:10098000687883B0202872D10C98002814D00D9874
:10099000002811D02878012869D001202870FFF79D
:1009A00097FE0746012200901923D103204600F04C
:1009B00051FE002871D103E00120400260646CE028
:1009C000212068704020A870002666640C98606240
:1009D0000D98608566630E980090019704A90EC972
:1009E000204600F0F3FD002801D02E7055E0608D08
:1009F000FF2805D9FF22228501231B06009606E069
:100A0000608D20850096208D0123C2B25B062046B2
:100A1000049900F00BFE3A4620460E9900F067FE5E
:100A200000283AD1606A216800788862606A401CB8
:100A30006062608D401E6085208D401E80B22085E2
:100A4000618D00291FD000281DD100970022802130
:100A500020460E9B00F0FEFD00281ED1608DFF2871
:100A600006D9FF22228501231B06009607E024E019
:100A7000608D20850096208D0123C2B25B06204642
:100A8000049900F0D3FD608D0028C4D13A46204679
:100A90000E9900F006FE002802D0012007B0F0BD3C
:100AA00020682021C16120684268054B1A404260DD
:100AB0006970AE702E700020F0E70220EEE70000B3
:100AC00000E800FE10B586B0044614216846FFF722
:100AD00077FB13492068884220D1124C61690120BC
:100AE00040040143616161690140032005914002B6
:100AF0000090122001900120029003200390042016
:100B0000049009206946C006FFF716FDE16901203F
:100B100040050143E161E1690140059106B010BD66
:100B20000054004000100240024881680278891891
:100B3000816070475800002010B5064801681022F7
:100B400011430160002000F007F800F027F80020B2
:100B500010BD00000020024070B504460D4D7D2000
:100B60002978C000FFF7BCFA01460B480068FFF780
:100B7000B7FA00F053FB002809D1042C07D2002259
:100B80002146401E00F03AF800206C6070BD012044
:100B900070BD0000580000206400002008B508481F
:100BA0008169012211438161816911400091C2690B
:100BB00001040A43C261C0690840009008BD0000FA
:100BC00000100240002809DBC106C90E0120884040
:100BD00003490860BFF34F8FBFF36F8F704700006A
:100BE00080E100E0002805DBC106C90E0120884035
:100BF000014908607047000000E100E010B501F015
:100C000055F810BDF8B505460068354CC00352D5FF
:100C1000E0690026C00007D4E16920040143E161D6
:100C2000E1690140012600912E480168C90510D4F0
:100C30000168821511430160FFF74AFD074604E091
:100C4000FFF746FDC01B642824D826480068C0056D
:100C5000F6D5206A03273F02384020D06968394022
:100C600081421CD0206A226AB843012109040A4348
:100C70002262226A8A4322622062C0070FD0FFF7F5
:100C800027FD009008E0FFF723FD0099411A164860
:100C9000814201D90320F8BD206A8007F3D5206A7C
:100CA0006968B84308432062002E04D0E16901203E
:100CB00000078143E1612878C00705D0206BA9684F
:100CC00080088000084320632878800605D5206BC3
:100CD00010218843E968084320630020F8BD000024
:100CE000001002400070004088130000F8B50F4665
:100CF000060059D03A4D2868C007C00FB84209D243
:100D0000286840084000384328602868C007C00FA2
:100D1000B84249D13068334C81070CD5400704D51F
:100D2000606807210902084360606068F021884319
:100D3000B168084360603078C00726D07068012829
:100D40000ED0216802280ED0890700292CDA6168AC
:100D50008908890001436160FFF7BAFC00900DE04B
:100D600021688903F1E78901EFE7FFF7B1FC0099FA
:100D7000411A1D48814201D90320F8BD60680C2149
:100D80000840716889008842EFD12868C007C00F09
:100D9000B8420BD9286840084000384328602868CA
:100DA000C007C00FB84201D00120F8BD307840071D
:100DB00006D56068072109028843F168084360602E
:100DC00000F028F86168094A0906090F515CC8401B
:100DD000074908600020FFF7BFFE0020F8BD0000B3
:100DE000002002400010024088130000C4390008AF
:100DF000640000200448054900684968044A490520
:100E0000490F515CC8407047640000200010024048
:100E1000D439000810B514A30FCB88B06C460FC4AA
:100E200015A30FCB0FC4184A51680C200B46034082
:100E30001648042B16D0082B14D18B021B0F6C46BE
:100E4000E45CD26A04AB1207120F9A5CC90305D5A1
:100E500000231946FFF75AF9214601E020460C49C4
:100E600000F00BFF08B010BD0203040506070809D7
:100E70000A0B0C0D0E0F10100102030405060708E3
:100E8000090A0B0C0D0E0F100010024000127A0020
:100E900000093D00FEB5040070D02078DC4DC0078D
:100EA0004AD068680007800F012807D068680007EB
:100EB000800F022809D16868C00306D5286880031E
:100EC0003AD560680028E7D036E06168012914D07F
:100ED00001208004002901D0052914D02A680121AD
:100EE00009048A432A6029688143296060680028D0
:100EF00016D0FFF7EDFB06460EE028680121090435
:100F000008432860F2E7296801432960F5E7FFF705
:100F1000DFFB801B64286ED828688003F7D50BE0C0
:100F2000FFF7D6FB064604E0FFF7D2FB801B6428E0
:100F3000F1D828688003F7D420780126800700289C
:100F40003CDA68680007800F07D068680007800FE8
:100F5000022809D16868C00306D42868800716D51E
:100F6000E06801280AD112E0E0680028286816D05D
:100F700030432860FFF7ACFB074605E043E1FFF78D
:100F8000A7FBC01B0228C6D828688007F7D52868A9
:100F9000F82188432169C900084328600EE0400811
:100FA00040002860FFF794FB074604E0FFF790FB42
:100FB000C01B0228AFD828688007F7D42078000724
:100FC00022D5E0690028686A0ED030436862FFF7D6
:100FD0007FFB074604E0FFF77BFBC01B02289AD883
:100FE000686A8007F7D50FE0400840006862FFF7A5
:100FF0006FFB074605E09DE0FFF76AFBC01B022878
:1010000089D8686A8007F7D4207804274007002829
:1010100060DA00200190E869C00008D4E969B806E8
:101020000143E961E969014001200091019079489B
:101030000168C90511D40168821511430160FFF7E9
:1010400047FB009005E0FFF743FB0099401A642836
:1010500070D870480068C005F5D5A06801280AD08E
:10106000002801D0052810D0286A400840002862D6
:10107000286AB84301E0286A30432862A068002843
:1010800012D0FFF725FB00900AE0286A3843286257
:10109000F1E7FFF71DFB0099411A5F48814249D8EB
:1010A000286A8007F5D50DE0FFF712FB009006E0F7
:1010B000FFF70EFB0099411A574881423AD8286A37
:1010C0008007F5D40198002804D0E96901200007C1
:1010D0008143E9612078C00635D5606901280CD0CC
:1010E000401D686B23D038436863686B400840003C
:1010F0006863FFF7EDFA064622E0686B38436863E1
:10110000686B30436863FFF7E3FA064604E0FFF7D5
:10111000DFFA801B02285BD8686B8007F7D5686B05
:10112000F8218843A169C900084368630BE0B8430C
:101130006863F4E74CE0FFF7CBFA801B022847D83E
:10114000686B8007F7D4206A00285ED069680907B9
:10115000890F022942D0012636060228286805D0C8
:10116000B0432860FFF7B4FA044633E0B043286088
:10117000FFF7AEFA074604E0FFF7AAFAC01B022801
:1011800026D828688001F7D4E86AE16A00090001DE
:101190000843E862616AA06A084369683D22120454
:1011A000914308436860286830432860FFF790FA4D
:1011B000044604E0FFF78CFA001B022808D82868D0
:1011C0008001F7D521E0FFF783FA001B022801D93F
:1011D0000320FEBD28688001F5D416E00128F8D070
:1011E0006868E96A01221204636A02409A420AD1DD
:1011F0000907E26A090F914205D10F2189040840CD
:10120000A16A884201D00120FEBD0020FEBD000081
:10121000001002400070004088130000094910B51A
:10122000401E884201D9012010BD074C6061032196
:10123000081F00F03BFD0020A06107202061002076
:1012400010BD0000FFFFFF0000E000E070B50400EB
:1012500005D025462035687F002802D006E0012011
:1012600070BD00202877204600F014F8022068772F
:10127000211D206800F050FB01204034A071A877A8
:10128000E87720706070A070E070207160716877FE
:10129000002070BD08B50B4A01680B48914205D18A
:1012A000C26981150A43C261C06908E0074A9142D8
:1012B00007D18269012149040A438261806908409B
:1012C000009008BD00200040001002400044014092
:1012D000014620314A7F012A01D0012070470222B5
:1012E0004A77006808490122884202D007498842AB
:1012F00004D181684907490F062902D001681143CA
:101300000160002070470000002C014000040040F4
:1013100001680A6A074B1A4207D10A6A9B101A42EF
:1013200003D10A68520852000A6001212030417737
:10133000002070471111000010B5040003D0A06F09
:10134000002802D007E0012010BD002174200155C3
:10135000204600F027F82420A0672068016849088B
:1013600049000160204600F0ABFB0128ECD0606A28
:10137000002802D0204600F00BFB206841680122C3
:10138000D2029143416020688168082291438160C4
:1013900020680168012211430160204600F05EFBD5
:1013A00010BD000010B586B0044614216846FEF753
:1013B00007FF1249206888421ED111488269012125
:1013C00089030A43826182690A4005924269C90021
:1013D0000A4342614069084005900C2000900220B9
:1013E0000190002002900320039001200490092026
:1013F0006946C006FFF7A0F806B010BD00380140EE
:1014000000100240FFB50446806F83B017460D46BA
:1014100020285ED1002D0AD0002F08D0A168C0017D
:10142000814207D12069002804D1E80702D00120B9
:1014300007B0F0BD204660300090007D012848D004
:101440000098012101750020802108512120A0670A
:10145000FFF73EF926464036019037827782012019
:10146000A1680003814202D12069002805D02F46DF
:10147000002500990020087511E00027F9E70022F7
:101480008021204600F0AAFB002815D1002F15D09E
:101490002168387808857F1C708A401E7082708AA7
:1014A000019B002806980090E9D1002240212046A7
:1014B00000F094FB002808D00320B9E728882168B1
:1014C000C005C00D0885AD1CE6E72020A067002000
:1014D000AEE70220ACE7FEE701688A69D2439207D3
:1014E00001D400228A6200688169C943C90703D018
:1014F000816901221143816170470000F7B50446FC
:1015000000680E468069C043C0062BD420272546BC
:10151000403520688069C043800612D5701CF8D021
:10152000FFF7D6F80299401AB04201D8002EF0D148
:10153000606C384360646F700020A87028700120D0
:10154000FEBD21681020C8612068C7612046FFF7F2
:10155000C3FF20684168044A11404160606C042167
:101560000843E7E70020FEBD00E800FEF8B50446AA
:10157000164615481D46DAB20090079F0023204604
:1015800000F054F83A462046069900F0B0F80028DA
:1015900018D12846F5B2012809D02168300A88629E
:1015A0003A462046069900F0A2F800280AD12068A1
:1015B00085620097002240212046069B00F04AF8F1
:1015C000002800D00120F8BD00200080F8B50446B6
:1015D000164615481D46DAB2C3020090079F204602
:1015E00000F024F83A462046069900F080F80028DA
:1015F00018D12846F5B2012809D02168300A88623E
:101600003A462046069900F072F800280AD1206870
:1016100085620097002280212046069B00F01AF880
:10162000002800D00120F8BD00200080F0B5066839
:10163000059C7568064F600D384385438805800D0D
:10164000110408431843204305437560F0BD0000B2
:10165000FF63FF03F8B51D4617460E46044609E032
:10166000681C07D0FFF734F80699401AA8420BD837
:10167000002D09D020688169304688430FD00020B2
:10168000B842EDD00020F8BD616C202001436164B8
:10169000403460700020A07020700120F8BD01204F
:1016A000EEE770B516460D4604460FE03246294671
:1016B0002046FFF723FF002801D0012070BDFFF76F
:1016C00007F8801BA84208D8002D06D02068806942
:1016D000C0438006EAD4002070BD616C2020014325
:1016E0006164403460700020A0702070E5E770B540
:1016F00016460D46044611E0324629462046FFF7BD
:10170000FDFE002801D0012070BD681C06D0FEF748
:10171000DFFF801BA84208D8002D06D02068806912
:10172000C0438007E8D4002070BD616C20200143D5
:101730006164403460700020A0702070E3E7000016
:10174000F0B587B014216846FEF73AFD2A48426991
:10175000012149040A43426142690A4005924269F3
:1017600049000A43426140690022084012218F0665
:1017700005903846FEF7A5FF212000901F48002461
:101780000190694602943846FEF7D6FE02260125EE
:10179000029469463846009601950394FEF7CCFE04
:1017A0001020009001956946029503943846FEF793
:1017B000C3FEC020124D0090694601950294384640
:1017C000FEF7BAFE69460F48009601950294FEF7AF
:1017D000B3FE002211460520FFF710FA0520FFF79F
:1017E00001FA002211460720FFF708FA0720FFF749
:1017F000F9F907B0F0BD0000001002400000311000
:10180000000011100004004810B513481149016090
:1018100012494160002181600161416181610122C1
:10182000C161C2600162FEF7A3FF002801D072B659
:10183000FEE700210848FEF751FF002801D072B6EC
:10184000FEE700210448FEF76EFF002801D072B6C3
:10185000FEE710BD00540040680400200E0900207F
:1018600010B50C480A4901604B21C90141600021B3
:101870008160C16001618161C1610C2201624261CC
:101880004162FFF759FD002801D072B6FEE710BD96
:101890000038014044050020FEE77047704710B54E
:1018A000FFF742F910BD10B594B030216846FEF73D
:1018B00087FC00240F9402200D94009012940120C4
:1018C00003900E94139410200C940490109411948F
:1018D00008946846FFF7DEFA002801D072B6FEE7EA
:1018E00007200C900D940E9400210F940CA8FFF784
:1018F000FDF9002801D072B6FEE721201090129465
:10190000139410A8FFF77EF9002801D072B6FEE705
:1019100014B010BD7047000070B50268174B184E28
:10192000984201D0B04203D17024A2434C682243B4
:10193000144C154D984208D0B04206D0134EB04218
:1019400003D0A04201D0A84204D103263602B243FC
:10195000CE6832438026B2434E69324302608A68C1
:10196000C2620A688262984203D0A04201D0A842B3
:1019700001D1096901630121416170BD002C014061
:1019800000040040004401400048014000200040A5
:1019900010B5818CC90707D001684A6801235B0430
:1019A0009A43836A1A434A60818C890707D5016884
:1019B0004A6801231B049A43C36A1A434A60818C14
:1019C000490707D501684A6801239B049A43036BC2
:1019D0001A434A60818C090707D501684A680123C8
:1019E000DB039A43436B1A434A60818CC90607D5CF
:1019F0000268916801231B039943836B194391602B
:101A0000818C890607D501688A6801235B039A43A4
:101A1000C36B1A438A60818C490612D503685A68E1
:101A200001210905046C8A4322435A60026C8A42F0
:101A300007D10268516803235B059943436C19433E
:101A40005160818C090607D501684A680123DB04CF
:101A5000806C9A4302434A6010BD0000F8B504460A
:101A6000002680300660FEF733FE054620680068D9
:101A7000124F000709D501212B46002249052046B7
:101A8000009700F0ABF800280DD1206800684007EF
:101A90000BD501212B46002289052046009700F036
:101AA0009DF8002801D00320F8BD2020A067E06742
:101AB0002666603426750020F8BD0000FFFFFF0198
:101AC00070B5044680682169E269084361690025B0
:101AD0001143084321680A683C4B1A4002430A60DC
:101AE00021684868032212039043E268104348606B
:101AF000A169206A084321688A680B231B029A4364
:101B000002438A603248006B8007800F16D001289C
:101B100018D0022818D0032812D010210120E36920
:101B2000C0032C4A2C4E83422BD100290ED002290F
:101B30000FD004290FD008293FD110E00021EDE794
:101B40000221EBE70421E9E70821E7E7FFF752F973
:101B500003E0104603E0FFF75DF9002831D061682B
:101B600040004A088018FEF7BBFA80B201461039DF
:101B7000B14222D81849491C01400007400F0843D0
:101B80001DE0002906D0022907D0042907D0082922
:101B900013D108E0FFF72EF903E0104603E0FFF74A
:101BA00039F900280DD061684A081018FEF798FA34
:101BB00080B201461039B14201D9012501E0216806
:101BC000C86000206066A066284670BDF369FFFF0C
:101BD0000010024000127A00EFFF0000FFB581B054
:101BE00005460F46044660350A9E39E0701C37D022
:101BF000FEF76EFD0499401AB04222D8002E20D084
:101C00002068016849072BD5C069C043000527D467
:101C100001202168C002086220680168FF22A13209
:101C20009143016020688168490849008160202053
:101C3000A067E0678034206000202875032005B08D
:101C4000F0BD20680168FF22A13291430160206845
:101C500081684908490081602020A067E067EBE7C0
:101C60002068C1693846884305D000210398814225
:101C7000BCD00020E3E70121F8E7F8B5040C8BB2F3
:101C8000264682B25E430D0C1046370C584336048C
:101C900080190021794116466E43370C36048019AD
:101CA000794126466E438919F8BD00008307FF225B
:101CB000DB0E9A408907090E9940002808DB83084B
:101CC00009489B001B181868904308431860704728
:101CD0000007000F0838830804489B001B18D869C8
:101CE00090430843D861704700E400E000ED00E055
:101CF00002E008C8121F08C1002AFAD170477047D5
:101D0000002001E001C1121F002AFBD17047000032
:101D1000F8B5A74DA74FA84E012830D0022872D0A1
:101D2000052871D0002870D100F0CEFA00210846B5
:101D300000F042FBA14C012306CCA1A0083C00F01E
:101D4000C7FB0F21002000F037FB06CC01239EA02B
:101D5000083C00F0BDFB1E21002000F02DFB06CC4E
:101D600001239BA0083C00F0B3FB2D21002000F0D4
:101D700023FB01239AA006CC00F0AAFBFFE0002081
:101D800000F0A2FA8B4F0024F879002802D865E011
:101D9000042C20D8162027464743F8B2002100F033
:101DA0000BFB285D834E84490009103606C9305C60
:101DB000012300F021FB0B37F8B2002100F0FCFA00
:101DC000285D7D490007000F06C9305C012300F043
:101DD00013FB784F3DE0601F052817D216214843BA
:101DE000C0B2142100F0E8FA285D7349000906C961
:101DF000305C012300F000FB204616214843633885
:101E0000C0B214211AE068E0BCE0BAE020460A380B
:101E100003281ED216214843C0B2282100F0CCFA74
:101E2000285D6549000906C9305C012300F0E4FA29
:101E3000162120464843D138C0B2282100F0BCFA10
:101E4000285D5D490007000F06C9305C012300F0E2
:101E5000D3FA641CF879E4B2844299D328214B2048
:101E600000F0AAFA554C012306CC62A0083C00F011
:101E70002FFB2821692000F09FFA4E4D6421E8795C
:101E8000FEF72EF92E4606CC1036305C0123083CB6
:101E900000F0B2FA2821702000F08EFA0A21E879C9
:101EA000FEF71EF906CC305C0123083C00F0A4FAD2
:101EB0002821772000F080FA0A21E879FEF710F94E
:101EC000705C06CC0123083C00F096FA35215A20BC
:101ED00000F072FA012349A04DE7002000F0F4F968
:101EE000002425E0042C21D8162060430090C0B2C5
:101EF000192100F061FA285D012301092D481030F5
:101F0000405C06CE083E00F077FA009819210B30AD
:101F1000C0B200F051FA285D012301072548090FDE
:101F20001030405C06CE083E00F066FA641CE4B255
:101F3000F8798442D6D31E4C00256A340DE00B207C
:101F40006843C0B200F038FA06CE6019C0780123A9
:101F5000083E00F051FA6D1CEDB26078A178A842FD
:101F6000EDD8C0B20B225043C0B200F025FA11499F
:101F700020782031085C06CE012300F03DFA00F005
:101F800021FAF8BD002000F09FF90A211E2000F080
:101F900013FA06CE01231BA0083E00F099FA28216F
:101FA000192000F009FA06CE012318A0E4E600008B
:101FB000C6070020180000201000002008000020A4
:101FC00052454D4F5445000054455354455200006E
:101FD00070726F66657373696F6E616C00000000EC
:101FE00044455349474E4544204259204F532052BF
:101FF000455A41006C656E3A000000005341564559
:102000000000000044415441000000005341564587
:10201000442100000EB5FEF78FFDFFF744FCFFF7EB
:102020008FFBFFF7F1FB8F4C8D482060FF200025D0
:10203000B830A560606025618B48A561E0602046EE
:10204000FFF704F9002801D072B6FEE7FFF708FC9D
:102050008448864948300160854985604160056152
:10206000456184498561C160FFF7F0F8002801D01F
:1020700072B6FEE700F03AF909201021C006FEF71B
:1020800018FB7D4900200870FFF742FE7D27754848
:10209000FF002026794D02230022A0214C38029710
:1020A00001960095FEF7BEFB6E4864232022294668
:1020B0009030FFF7A7F96B4802232022A0214C386B
:1020C000029701960095FEF7ADFB66486423202237
:1020D00029469030FFF796F9624802234022A0215A
:1020E0004C38029701960095FEF79CFB5D486423EF
:1020F000202229469030FFF785F95A4802236022B2
:10210000A0214C38029701960095FEF78BFB5548AD
:102110006423202229469030FFF774F9564D584E1B
:10212000083D50480068406AFF2814D328780328E7
:1021300011D10720FEF746FD0020E8606870287086
:102140000120A8704748FFF7E3F809200122102179
:10215000C006FEF7B6FAA8780028E2D009200022CF
:102160000221C006FEF7ADFA6C790021E878621E04
:1021700005E0735C834200D91846491CC9B29142FC
:10218000F7DBE87000222979631E05E0B75C8F4217
:1021900000D23946521CD2B29A42F7DB2971081894
:1021A0004108374F00200123A971FF3708E0325C56
:1021B0008A4201D33B5401E000223A54401CC0B291
:1021C000A042F4D32D4828212838FDF7F9FF2B4FE2
:1021D0000020283F0FE02A494307FF31095C5B0FCD
:1021E000C907C90F0722D21A9140C208BB5C194324
:1021F000401CB954C0B2A042EDD307216007490783
:10220000C84205D1641EE017400F0019C01005E058
:10221000641EE017400F0019C010401CE871002434
:1022200007E017483919642301228438FFF7EAF8D8
:10223000641CE879401C8442F3DD0120FFF768FD4F
:102240000020401CC0B20428FBD30020A870E87016
:102250002871C820FDF7F6FF0720FEF7C3FC60E7F2
:1022600000200040B404002050C30000004401409E
:102270003F9C0000FFFF000020000020EE07002030
:10228000C805002070B5802815D2402913D24D070B
:1022900001246D0F0A4BAC40C9081E79C901094BD6
:1022A0000818002E02D0002A06D001E0012A03D02F
:1022B000195CA143195470BD195C2143FAE7000071
:1022C000000000206800002010B50021064B01220C
:1022D0009202002805D0FF245C54491C9142F8D397
:1022E00010BD0024F8E700006800002010B564204D
:1022F000FDF7A8FFAE2000F0C7F8202000F0C4F8DA
:10230000102000F0C1F8B02000F0BEF8C82000F0A6
:10231000BBF8002000F0B8F8102000F0B5F840201D
:1023200000F0B2F8812000F0AFF8FF2000F0ACF828
:10233000A12000F0A9F8A62000F0A6F8A82000F03F
:10234000A3F83F2000F0A0F8A42000F09DF8D320CF
:1023500000F09AF8002000F097F8D52000F094F8EB
:10236000F02000F091F8D92000F08EF8222000F043
:102370008BF8DA2000F088F8122000F085F8DB20D6
:1023800000F082F8202000F07FF88D2000F07CF82B
:10239000142000F079F8AF2000F076F80020FFF765
:1023A00093FF00F00FF803480021018041800121D4
:1023B000417110BD00000020014A1080518070471B
:1023C0000000002070B50B4D00242046B030C0B294
:1023D00000F05AF8002000F057F8102000F054F8F0
:1023E000E0014019802100F063F8641CE4B2082C7D
:1023F000EBD370BD68000020FFB581B021486A466C
:102400000188177AC919802904D24088567A801920
:10241000402802D3002005B0F0BD002528E0019936
:1024200030462039484340194000039A0024105A8E
:1024300000901AE00098A040000408D51148049AC2
:102440008178007849190019C9B2C0B20AE004982D
:10245000002815D000220B4881780078491900190E
:10246000C9B2C0B2FFF70EFF641CA742E2D86D1CD0
:10247000AE42D4D803480188C91901800198CAE73F
:102480000122E8E70000002001B584B0002201210C
:10249000D24304A80B4602920191009000227821B9
:1024A0000248FEF769FA05B000BD0000680400208C
:1024B0000EB50022D24389B202920191009001230D
:1024C000402278210148FEF757FA0EBD680400202B
:1024D000F0B51D460E46174604460AE02B463A461E
:1024E0003146FFF789FF2178884201D0C8B2F0BD9C
:1024F000641C20780028F1D1C0B2F0BD00000000BB
:1025000000000000000000000000000000000000CB
:10251000001000100010001000100010000000104B
:102520000000000000280028002800000000000033
:10253000000000000000000000240024007C0024B3
:102540000048007C004800480000000000380054AB
:1025500000500038001400540054003800100000EF
:1025600000200054005800300028005400140008D7
:10257000000000000010002800280010003400486F
:10258000004800340000000000100010001000009F
:102590000000000000000000000000000008001023
:1025A0000020002000200020002000200010000853
:1025B00000200010000800080008000800080008BB
:1025C000001000200010003800100028000000005B
:1025D00000000000000000000000000000100010DB
:1025E000007C00100010000000000000000000004F
:1025F00000000000000000000000001000100010AB
:102600000000000000000000000000380000000092
:1026100000000000000000000000000000000000BA
:10262000000000100000000000080008001000106A
:1026300000100010002000200000000000380044BE
:1026400000440054004400440044003800000000EE
:10265000001000300050001000100010001000109A
:10266000000000000038004400440004000800108E
:102670000020007C00000000003800440004001826
:1026800000040004004400380000000000080018A6
:10269000002800280048007C000800080000000016
:1026A000007C004000400078000400040044003832
:1026B000000000000038004400400078004400445E
:1026C0000044003800000000007C000400080010F6
:1026D000001000200020002000000000003800440E
:1026E000004400380044004400440038000000006A
:1026F0000038004400440044003C0004004400381A
:1027000000000000000000000010000000000000B9
:102710000000001000000000000000000000001099
:102720000000000000000010001000100000000079
:10273000000C003000400030000C000000000000E1
:10274000000000000000007C0000007C0000000091
:1027500000000000000000000060001800040018E5
:102760000060000000000000003800440004000881
:1027700000100010000000100000000000380044AD
:10278000004C0054005C0040004000380000000095
:1027900000100028002800280028007C0044004485
:1027A0000000000000780044004400780044004429
:1027B0000044007800000000003800440040004061
:1027C0000040004000440038000000000070004855
:1027D0000044004400440044004800700000000031
:1027E000007C00400040007C004000400040007C35
:1027F00000000000007C00400040007800400040E5
:10280000004000400000000000380044004000404C
:10281000005C004400440038000000000044004414
:102820000044007C004400440044004400000000D8
:1028300000380010001000100010001000100038C8
:102840000000000000040004000400040004000470
:1028500000440038000000000044004800500060C0
:1028600000500048004800440000000000400040C4
:1028700000400040004000400040007C000000009C
:102880000044006C006C00540044004400440044C8
:102890000000000000440064006400540054004C38
:1028A000004C004400000000003800440044004494
:1028B0000044004400440038000000000078004458
:1028C0000044004400780040004000400000000048
:1028D00000380044004400440044004400540038E0
:1028E00000040000007800440044004400780048E0
:1028F0000048004400000000003800440040003060
:10290000000800040044003800000000007C0010B3
:102910000010001000100010001000100000000057
:102920000044004400440044004400440044003893
:102930000000000000440044004400280028002853
:102940000010001000000000004400440054005437
:102950000054006C002800280000000000440028FB
:10296000002800100010002800280044000000008B
:10297000004400440028002800100010001000103F
:1029800000000000007C000400080010001000207F
:102990000040007C00000000001800100010001033
:1029A000001000100010001000100018002000207F
:1029B00000100010001000100008000800000000C7
:1029C0000030001000100010001000100010001067
:1029D0000010003000100028002800440000000013
:1029E00000000000000000000000000000000000E7
:1029F0000000000000000000000000FE00200010A9
:102A000000000000000000000000000000000000C6
:102A10000000000000380044003C0044004C00343A
:102A200000000000004000400058006400440044E2
:102A3000006400580000000000000000003800445E
:102A40000040004000440038000000000004000482
:102A50000034004C00440044004C003400000000EE
:102A60000000000000380044007C004000440038B2
:102A700000000000000C0010007C0010001000108E
:102A80000010001000000000000000000034004CA6
:102A900000440044004C0034000400780040004032
:102AA000005800640044004400440044000000005A
:102AB0000010000000700010001000100010001046
:102AC0000000000000100000007000100010001056
:102AD00000100010001000E00040004000480050CE
:102AE000006000500048004400000000007000102A
:102AF0000010001000100010001000100000000076
:102B000000000000007800540054005400540054A9
:102B10000000000000000000005800640044004471
:102B200000440044000000000000000000380044A1
:102B30000044004400440038000000000000000091
:102B40000058006400440044006400580040004005
:102B5000000000000034004C00440044004C0034ED
:102B60000004000400000000005800640040004021
:102B70000040004000000000000000000038004459
:102B80000030000800440038000000000020002051
:102B90000078002000200020002000180000000025
:102BA000000000000044004400440044004C003495
:102BB000000000000000000000440044002800283D
:102BC0000028001000000000000000000054005425
:102BD0000054006C002800280000000000000000E5
:102BE00000440028001000100028004400000000ED
:102BF00000000000004400440028002800100010DD
:102C00000010006000000000007C000800100020A0
:102C10000040007C000000000018001000100010B0
:102C200000200020001000100010001800100010FC
:102C30000010001000100010001000100010001014
:102C400000300010001000100008000800100010F4
:102C5000001000300000000000000074004C000074
:102C60000000000000000000000000000000000064
:102C70000000000000000000000000000000000054
:102C80000000000000000000000000000000000C38
:102C9000000C000C000C000C000C000C000C000CD4
:102CA000000C000C0000000C000C000000000000F4
:102CB0000000001B001B001B001B001B000000008D
:102CC0000000000000000000000000000000000004
:102CD0000000000000008019801980198019C07F51
:102CE000C07F80190033C07FC07F003300330033C2
:102CF00000330000000000000000001E003F80754F
:102D000080650074003C001E0007800580658065BA
:102D10008075003F001E00040004000000000070E9
:102D200000D840D8C0D880D900730006000C801BA2
:102D3000C036C066C046C006800300000000000028
:102D40000000001E003F003300330033001E000C63
:102D5000C03CC066806380618063C03E801C000010
:102D6000000000000000000C000C000C000C000C27
:102D70000000000000000000000000000000000053
:102D800000000000000000008000000100030006B9
:102D900000060004000C000C000C000C000C000CE1
:102DA000000400060006000300018000002000105F
:102DB0000018000C000C00040006000600060006C7
:102DC000000600060004000C000C00180010002093
:102DD0000000000C002D003F001E0033000000002A
:102DE00000000000000000000000000000000000E3
:102DF00000000000000000000000000C000C000CAF
:102E0000000CC0FFC0FF000C000C000C000C000008
:102E100000000000000000000000000000000000B2
:102E200000000000000000000000000000000000A2
:102E30000000000C000C000400040008000000006A
:102E40000000000000000000000000000000001E64
:102E5000001E000000000000000000000000000054
:102E60000000000000000000000000000000000062
:102E700000000000000000000000000C000C00003A
:102E8000000000000000000300030003000600062D
:102E900000060006000C000C000C000C00180018C6
:102EA00000180000000000000000001E003F00337A
:102EB000806180618061806D806D806180618061F2
:102EC0000033003F001E000000000000000000066C
:102ED000000E001E00360026000600060006000652
:102EE00000060006000600060006000000000000C4
:102EF0000000001E003F807380618061800100033C
:102F00000006000C001800300060807F807F000009
:102F1000000000000000001C003E0063006300038E
:102F2000000E000E00038001800180618073003F6D
:102F3000001E00000000000000000006000E000E51
:102F4000001E001E0016003600360066807F807F5F
:102F50000006000600060000000000000000007FE0
:102F6000007F006000600060006E007F8063800171
:102F7000800180618073003F001E0000000000009F
:102F80000000001E003F803380610060006E007F03
:102F900080738061806180618033003F001E00008B
:102FA000000000000000807F807F8001000300039C
:102FB00000060006000C000C000C000800180018A9
:102FC00000180000000000000000001E003F8063A9
:102FD000806180610021001E003F8061806180610E
:102FE0008061003F001E0000000000000000001E85
:102FF000003F00738061806180618073803F801D2D
:10300000800180610073003F001E0000000000008E
:1030100000000000000000000000000C000C000098
:1030200000000000000000000000000C000C000088
:103030000000000000000000000000000000000090
:10304000000C000C00000000000000000000000C5C
:10305000000C000400040008000000000000000054
:1030600080008003000E003800600038000E8003EE
:1030700080000000000000000000000000000000D0
:10308000000000000000807F807F00000000807F43
:10309000807F000000000000000000000000000031
:1030A000000000000000000000400070001C00074D
:1030B00080010007001C00700040000000000000BC
:1030C000000000000000001F803FC071C060C00011
:1030D000C00180030007000E000C000C0000000C73
:1030E000000C0000000000000000001E003F8031C6
:1030F00080718063806F806D806D806F80670060FD
:103100000032003E001C0000000000000000000E25
:10311000000E001B001B001B001B80318031803F14
:10312000803F8031C060C060C060000000000000CF
:103130000000007C007E0063006300630063007E8B
:10314000007E0063806180618063007F007E0000FC
:10315000000000000000001E003F80318061006020
:103160000060006000600060006080618031003FAE
:10317000001E0000000000000000007C007F0063D3
:1031800080638061806180618061806180610063B3
:103190000063007E007C0000000000000000807FD3
:1031A000807F0060006000600060007F007F006042
:1031B000006000600060807F807F000000000000F1
:1031C0000000807F807F0060006000600060007F02
:1031D000007F006000600060006000600060000030
:1031E000000000000000001E003F80318061006090
:1031F0000060006080638063806180618031803F17
:10320000001E0000000000000000806180618061FD
:10321000806180618061807F807F8061806180616A
:103220008061806180610000000000000000003FBC
:10323000003F000C000C000C000C000C000C000CFB
:10324000000C000C000C003F003F000000000000DC
:1032500000008001800180018001800180018001E7
:1032600080018001806180618073003F001E00004A
:10327000000000000000C06080610063006600661E
:10328000006C0078007C00660066006380618061ED
:10329000C0600000000000000000006000600060EE
:1032A000006000600060006000600060006000601E
:1032B0000060807F807F0000000000000000C0717F
:1032C000C071C07BC07AC06AC06AC06EC064C06092
:1032D000C060C060C060C060C0600000000000004E
:1032E000000080718071807980798079806D806D37
:1032F000806D806580678067806780638063000081
:10330000000000000000001E003F0033806180616B
:103310008061806180618061806180610033003FF5
:10332000001E0000000000000000007E007F80639F
:103330008061806180618063007F007E006000604A
:103340000060006000600000000000000000001E3F
:10335000003F0033806180618061806180618061B5
:10336000806580670033803F401E00000000000041
:103370000000007E007F8063806180618063007F49
:10338000007E00660063006380618061C0600000B1
:10339000000000000000000E001F8031803100306E
:1033A0000038001E00078003806180618031003F8B
:1033B000001E0000000000000000C0FFC0FF000C65
:1033C000000C000C000C000C000C000C000C000C9D
:1033D000000C000C000C00000000000000008061E8
:1033E00080618061806180618061806180618061D5
:1033F000806180618073003F001E000000000000BB
:103400000000C060C060C060803180318031001B2E
:10341000001B001B001B000E000E000E000400002D
:10342000000000000000C0C0C0C0C0C0C0C0C0C01C
:10343000C0CC804C804C805E805280528073806112
:1034400080610000000000000000C0C0806080615A
:103450000033003B001E000C000C001E001F003B50
:1034600080718061C0C00000000000000000C0C08A
:103470008061806100330033001E001E000C000CD0
:10348000000C000C000C000C000C00000000000000
:103490000000803F803F8001000300030006000C15
:1034A000000C0018001800300060807F807F000052
:1034B00000000000000F000F000C000C000C000CBE
:1034C000000C000C000C000C000C000C000C000C9C
:1034D000000C000C000F000F00000018001800186E
:1034E000000C000C000C000C000600060006000694
:1034F000000300030003000000000000001E001E87
:10350000000600060006000600060006000600068B
:10351000000600060006000600060006001E001E4B
:103520000000000C000C001E00120033003380610C
:1035300080610000000000000000000000000000AA
:10354000000000000000000000000000000000007B
:10355000000000000000000000000000000000006B
:1035600000000000E0FF0000000000380018000C20
:10357000000000000000000000000000000000004B
:10358000000000000000000000000000000000003B
:10359000000000000000001F803F80618001801F4C
:1035A000803F80618063807FC038000000000000A1
:1035B00000000060006000600060006E007F8073AB
:1035C00080618061806180618073007F006E000097
:1035D0000000000000000000000000000000001ECD
:1035E000003F807380610060006080618073003FF5
:1035F000001E00000000000000008001800180012A
:103600008001801D803F8073806180618061806166
:103610008073803F801D000000000000000000005B
:10362000000000000000001E003F00738061807FEA
:10363000807F00608071003F001E000000000000DD
:103640000000C007C00F000C000C807F807F000CC2
:10365000000C000C000C000C000C000C000C000016
:10366000000000000000000000000000801D803FFE
:10367000807380618061806180618073803F801D84
:1036800080018063007F003E0000006000600060F9
:103690000060006F807F80718061806180618061E7
:1036A0008061806180610000000000000000000671
:1036B000000600000000003E003E00060006000676
:1036C00000060006000600060006000000000000DC
:1036D0000006000600000000003E003E0006000656
:1036E000000600060006000600060006000600466A
:1036F000007E003C000000600060006000608061AF
:1037000000630066006C007C0076006300638061EB
:10371000C0600000000000000000003E003E000607
:103720000006000600060006000600060006000669
:103730000006000600060000000000000000000077
:1037400000000000000080DDC0FFC0CEC0CCC0CCB7
:10375000C0CCC0CCC0CCC0CCC0CC000000000000AD
:1037600000000000000000000000006F807F8071FA
:103770008061806180618061806180618061000022
:103780000000000000000000000000000000001E1B
:10379000003F807380618061806180618073003F41
:1037A000001E0000000000000000000000000000FB
:1037B000006E007F807380618061806180618073B2
:1037C000007F006E0060006000600060000000008C
:1037D00000000000801D803F8073806180618061F7
:1037E00080618073803F801D8001800180018001A5
:1037F000000000000000000000000067803F00396A
:103800000030003000300030003000300030000068
:103810000000000000000000000000000000001E8A
:10382000803F80610060007F803F80018061007F79
:10383000001E00000000000000000000000800184A
:103840000018007F007F00180018001800180018EA
:103850000018801F800F0000000000000000000022
:1038600000000000000080618061806180618061F3
:10387000806180618063807F803D000000000000E7
:1038800000000000000000000000C06080318031B6
:103890008031001B001B001B000E000E0006000004
:1038A000000000000000000000000000000080DDBB
:1038B00080DD80DD0055005500550077007700223F
:1038C00000220000000000000000000000000000D6
:1038D0000000806100330033001E000C000C001E4D
:1038E0000033003380610000000000000000000091
:1038F0000000000080618061803100330033001BD4
:10390000001B001B000E000E000E001C007C00704F
:1039100000000000000000000000C07FC07F8001A8
:1039200000030006000C00180030C07FC07F0000BC
:103930000000000080038007000600060006000665
:103940000006000E001C001C000E0006000600060B
:103950000006000680078003000600060006000639
:103960000006000600060006000600060006000627
:103970000006000600060006000600060038003CAF
:10398000000C000C000C000C000C000E00070007DF
:10399000000E000C000C000C000C000C003C003869
:1039A000000000000000000000000000000080385F
:1039B000807F0047000000000000000000000000C1
:1039C00000000000000000000000000001020304ED
:1039D000060708090000000001020304FC39000882
:1039E0000000002068000000F01C0008643A000895
:1039F00068000020E00B0000001D0008000000002F
:103A000000000000070A0000FC2400080B12000060
:103A1000682C00080000000000000000000000000A
:103A20000000000030313233343536373839414206
:103A3000434445464142434445464748494A4B4C26
:103A40004D4E4F505152535455565758595A0000E5
:103A50000000000001000000040000000000000061
:043A600000127A00D6
:04000005080000B13E
:00000001FF
